{
  "contractName": "Staking",
  "abi": [
    {
      "inputs": [],
      "payable": false,
      "stateMutability": "nonpayable",
      "type": "constructor"
    },
    {
      "anonymous": false,
      "inputs": [
        {
          "indexed": true,
          "internalType": "address",
          "name": "user",
          "type": "address"
        },
        {
          "indexed": false,
          "internalType": "uint256",
          "name": "rewards",
          "type": "uint256"
        }
      ],
      "name": "ClaimedRewards",
      "type": "event"
    },
    {
      "anonymous": false,
      "inputs": [
        {
          "indexed": true,
          "internalType": "address",
          "name": "user",
          "type": "address"
        },
        {
          "indexed": false,
          "internalType": "uint256",
          "name": "amount",
          "type": "uint256"
        }
      ],
      "name": "Staked",
      "type": "event"
    },
    {
      "anonymous": false,
      "inputs": [
        {
          "indexed": true,
          "internalType": "address",
          "name": "user",
          "type": "address"
        },
        {
          "indexed": false,
          "internalType": "uint256",
          "name": "amount",
          "type": "uint256"
        }
      ],
      "name": "Unstaked",
      "type": "event"
    },
    {
      "constant": true,
      "inputs": [],
      "name": "APR",
      "outputs": [
        {
          "internalType": "uint256",
          "name": "",
          "type": "uint256"
        }
      ],
      "payable": false,
      "stateMutability": "view",
      "type": "function"
    },
    {
      "constant": true,
      "inputs": [],
      "name": "SECONDS_IN_YEAR",
      "outputs": [
        {
          "internalType": "uint256",
          "name": "",
          "type": "uint256"
        }
      ],
      "payable": false,
      "stateMutability": "view",
      "type": "function"
    },
    {
      "constant": true,
      "inputs": [],
      "name": "rewardRate",
      "outputs": [
        {
          "internalType": "uint256",
          "name": "",
          "type": "uint256"
        }
      ],
      "payable": false,
      "stateMutability": "view",
      "type": "function"
    },
    {
      "constant": true,
      "inputs": [
        {
          "internalType": "address",
          "name": "",
          "type": "address"
        }
      ],
      "name": "stakes",
      "outputs": [
        {
          "internalType": "uint256",
          "name": "stakedAmount",
          "type": "uint256"
        },
        {
          "internalType": "uint256",
          "name": "rewardsEarned",
          "type": "uint256"
        },
        {
          "internalType": "uint256",
          "name": "start",
          "type": "uint256"
        },
        {
          "internalType": "uint256",
          "name": "lastRewardCalculationTime",
          "type": "uint256"
        },
        {
          "internalType": "uint256",
          "name": "lockExpiry",
          "type": "uint256"
        }
      ],
      "payable": false,
      "stateMutability": "view",
      "type": "function"
    },
    {
      "constant": true,
      "inputs": [],
      "name": "token",
      "outputs": [
        {
          "internalType": "contract IERC20",
          "name": "",
          "type": "address"
        }
      ],
      "payable": false,
      "stateMutability": "view",
      "type": "function"
    },
    {
      "constant": false,
      "inputs": [
        {
          "internalType": "uint256",
          "name": "_amount",
          "type": "uint256"
        }
      ],
      "name": "stake",
      "outputs": [],
      "payable": false,
      "stateMutability": "nonpayable",
      "type": "function"
    },
    {
      "constant": false,
      "inputs": [
        {
          "internalType": "uint256",
          "name": "_amount",
          "type": "uint256"
        }
      ],
      "name": "unstake",
      "outputs": [],
      "payable": false,
      "stateMutability": "nonpayable",
      "type": "function"
    },
    {
      "constant": true,
      "inputs": [],
      "name": "calculateRewards",
      "outputs": [
        {
          "internalType": "uint256",
          "name": "rewards",
          "type": "uint256"
        }
      ],
      "payable": false,
      "stateMutability": "view",
      "type": "function"
    },
    {
      "constant": false,
      "inputs": [],
      "name": "claimRewards",
      "outputs": [],
      "payable": false,
      "stateMutability": "nonpayable",
      "type": "function"
    }
  ],
  "bytecode": "0x60806040526103e860025534801561001657600080fd5b50336000806101000a81548173ffffffffffffffffffffffffffffffffffffffff021916908373ffffffffffffffffffffffffffffffffffffffff1602179055506000600360003373ffffffffffffffffffffffffffffffffffffffff1673ffffffffffffffffffffffffffffffffffffffff16815260200190815260200160002090506301e13380612710600254836000015402816100b257fe5b04816100ba57fe5b0460018190555050610a01806100d16000396000f3fe608060405234801561001057600080fd5b50600436106100935760003560e01c80635dcc9391116100665780635dcc9391146101625780637b0a47ee14610180578063a694fc3a1461019e578063bd30558e146101cc578063fc0c546a146101ea57610093565b806316934fc4146100985780632e17de781461010c578063372500ab1461013a5780633e50de3014610144575b600080fd5b6100da600480360360208110156100ae57600080fd5b81019080803573ffffffffffffffffffffffffffffffffffffffff169060200190929190505050610234565b604051808681526020018581526020018481526020018381526020018281526020019550505050505060405180910390f35b6101386004803603602081101561012257600080fd5b810190808035906020019092919050505061026a565b005b6101426103a7565b005b61014c610634565b6040518082815260200191505060405180910390f35b61016a6106ac565b6040518082815260200191505060405180910390f35b6101886106b4565b6040518082815260200191505060405180910390f35b6101ca600480360360208110156101b457600080fd5b81019080803590602001909291905050506106ba565b005b6101d46109a1565b6040518082815260200191505060405180910390f35b6101f26109a7565b604051808273ffffffffffffffffffffffffffffffffffffffff1673ffffffffffffffffffffffffffffffffffffffff16815260200191505060405180910390f35b60036020528060005260406000206000915090508060000154908060010154908060020154908060030154908060040154905085565b600081116102e0576040517f08c379a000000000000000000000000000000000000000000000000000000000815260040180806020018281038252601d8152602001807f416d6f756e74206d7573742062652067726561746572207468616e203000000081525060200191505060405180910390fd5b6000600360003373ffffffffffffffffffffffffffffffffffffffff1673ffffffffffffffffffffffffffffffffffffffff168152602001908152602001600020905060008160000181905550600081600101819055506000816003018190555060008160020181905550600081600401819055503373ffffffffffffffffffffffffffffffffffffffff167f0f5bb82176feb1b5e747e28471aa92156a04d9f3ab9f45f28e2d704232b93f75836040518082815260200191505060405180910390a25050565b6000600360003373ffffffffffffffffffffffffffffffffffffffff1673ffffffffffffffffffffffffffffffffffffffff168152602001908152602001600020905060006103f4610634565b90506000811161046c576040517f08c379a00000000000000000000000000000000000000000000000000000000081526004018080602001828103825260138152602001807f4e6f207265776172647320746f20636c61696d0000000000000000000000000081525060200191505060405180910390fd5b80826001016000828254019250508190555042826003018190555060008060009054906101000a900473ffffffffffffffffffffffffffffffffffffffff1673ffffffffffffffffffffffffffffffffffffffff1663a9059cbb33846040518363ffffffff1660e01b8152600401808373ffffffffffffffffffffffffffffffffffffffff1673ffffffffffffffffffffffffffffffffffffffff16815260200182815260200192505050602060405180830381600087803b15801561053157600080fd5b505af1158015610545573d6000803e3d6000fd5b505050506040513d602081101561055b57600080fd5b81019080805190602001909291905050509050806105e1576040517f08c379a00000000000000000000000000000000000000000000000000000000081526004018080602001828103825260158152602001807f546f6b656e207472616e73666572206661696c6564000000000000000000000081525060200191505060405180910390fd5b3373ffffffffffffffffffffffffffffffffffffffff167f2d5429efdeca7741a8cd94067b18d988bc4e5f1d5b8272c37b7bfc31e9bfa32c836040518082815260200191505060405180910390a2505050565b600080600360003373ffffffffffffffffffffffffffffffffffffffff1673ffffffffffffffffffffffffffffffffffffffff168152602001908152602001600020905060008160030154420390506000670de0b6b3a76400008260015485600001540202816106a057fe5b04905080935050505090565b6301e1338081565b60015481565b60008111610730576040517f08c379a000000000000000000000000000000000000000000000000000000000815260040180806020018281038252600f8152602001807f4e6f20746f6b656e7320666f756e64000000000000000000000000000000000081525060200191505060405180910390fd5b60008060009054906101000a900473ffffffffffffffffffffffffffffffffffffffff1673ffffffffffffffffffffffffffffffffffffffff166323b872dd3330856040518463ffffffff1660e01b8152600401808473ffffffffffffffffffffffffffffffffffffffff1673ffffffffffffffffffffffffffffffffffffffff1681526020018373ffffffffffffffffffffffffffffffffffffffff1673ffffffffffffffffffffffffffffffffffffffff1681526020018281526020019350505050602060405180830381600087803b15801561080e57600080fd5b505af1158015610822573d6000803e3d6000fd5b505050506040513d602081101561083857600080fd5b81019080805190602001909291905050509050806108be576040517f08c379a00000000000000000000000000000000000000000000000000000000081526004018080602001828103825260158152602001807f546f6b656e207472616e73666572206661696c6564000000000000000000000081525060200191505060405180910390fd5b6000600360003373ffffffffffffffffffffffffffffffffffffffff1673ffffffffffffffffffffffffffffffffffffffff168152602001908152602001600020905082816000016000828254019250508190555061091b610634565b8160010160008282540192505081905550428160030181905550428160020181905581600201819055504281600401819055503373ffffffffffffffffffffffffffffffffffffffff167f9e71bc8eea02a63969f509818f2dafb9254532904319f9dbda79b67bd34a5f3d846040518082815260200191505060405180910390a2505050565b60025481565b6000809054906101000a900473ffffffffffffffffffffffffffffffffffffffff168156fea265627a7a723158200c0ce7d6486827596692db6bc27ec0f6b31ee432097930179ce1da7a51f317f164736f6c63430005100032",
  "source": "// SPDX-License-Identifier: MIT\npragma solidity >=0.4.25 <0.7.0;\n\nimport \"./IERC20.sol\";\n\ncontract Staking {\n    IERC20 public token;\n\n    uint256 public rewardRate;\n    uint256 public APR = 1000; // 10%\n    uint256 public constant SECONDS_IN_YEAR = 31536000; // 365 * 24 * 60 * 60\n\n    struct Stake {\n        uint256 stakedAmount;\n        uint256 rewardsEarned;\n        uint256 start;\n        uint256 lastRewardCalculationTime;\n        uint256 lockExpiry;\n    }\n\n    mapping(address => Stake) public stakes;\n\n    event Staked(address indexed user, uint256 amount);\n    event Unstaked(address indexed user, uint256 amount);\n    event ClaimedRewards(address indexed user, uint256 rewards);\n\n    constructor() public {\n        token = IERC20(msg.sender);\n        Stake storage user = stakes[msg.sender];\n        rewardRate = (((user.stakedAmount * APR) / 10000)) / SECONDS_IN_YEAR;\n    }\n\n    function stake(uint256 _amount) external {\n        require(_amount > 0, \"No tokens found\");\n\n        // Transfer the staking amount to contract account using IERC20\n        bool isTransfered = token.transferFrom(\n            msg.sender,\n            address(this),\n            _amount\n        );\n        require(isTransfered, \"Token transfer failed\");\n\n        Stake storage user = stakes[msg.sender];\n        user.stakedAmount += _amount;\n        user.rewardsEarned += calculateRewards();\n        user.lastRewardCalculationTime = block.timestamp;\n        user.start = user.start = block.timestamp;\n        user.lockExpiry = block.timestamp;\n\n        emit Staked(msg.sender, _amount);\n    }\n\n    function unstake(uint256 _amount) external {\n        require(_amount > 0, \"Amount must be greater than 0\");\n\n        Stake storage user = stakes[msg.sender];\n        user.stakedAmount = 0;\n        user.rewardsEarned = 0;\n        user.lastRewardCalculationTime = 0;\n        user.start = 0;\n        user.lockExpiry = 0;\n\n        emit Unstaked(msg.sender, _amount);\n    }\n\n    function calculateRewards() public view returns (uint256 rewards) {\n        Stake storage user = stakes[msg.sender];\n        uint256 timeElapsed = block.timestamp - user.lastRewardCalculationTime;\n        // TODO require(timeElapsed > lockExpiry);\n        uint256 calculatedRewards = (user.stakedAmount *\n            rewardRate *\n            timeElapsed) / 1e18;\n        return calculatedRewards;\n    }\n\n    function claimRewards() external {\n        Stake storage user = stakes[msg.sender];\n        uint256 rewards = calculateRewards();\n        require(rewards > 0, \"No rewards to claim\");\n\n        user.rewardsEarned += rewards;\n        user.lastRewardCalculationTime = block.timestamp;\n\n        bool success = token.transfer(msg.sender, rewards);\n        require(success, \"Token transfer failed\");\n\n        emit ClaimedRewards(msg.sender, rewards);\n    }\n}\n",
  "sourcePath": "/Users/muhammadusman/Desktop/projects/personal/defi-stake/truffle/contracts/Staking.sol",
  "compiler": {
    "name": "solc",
    "version": "0.5.16+commit.9c3226ce.Emscripten.clang"
  },
  "schemaVersion": "3.4.16",
  "updatedAt": "2025-04-04T07:09:07.938Z",
  "networkType": "ethereum",
  "devdoc": {
    "methods": {}
  },
  "userdoc": {
    "methods": {}
  }
}